{
  "contractName": "Tickets",
  "abi": [
    {
      "inputs": [],
      "stateMutability": "nonpayable",
      "type": "constructor"
    },
    {
      "inputs": [],
      "name": "owner",
      "outputs": [
        {
          "internalType": "address",
          "name": "",
          "type": "address"
        }
      ],
      "stateMutability": "view",
      "type": "function",
      "constant": true
    },
    {
      "inputs": [
        {
          "internalType": "uint256",
          "name": "",
          "type": "uint256"
        }
      ],
      "name": "tickets",
      "outputs": [
        {
          "internalType": "uint256",
          "name": "price",
          "type": "uint256"
        },
        {
          "internalType": "uint256",
          "name": "id",
          "type": "uint256"
        },
        {
          "internalType": "address",
          "name": "owner",
          "type": "address"
        }
      ],
      "stateMutability": "view",
      "type": "function",
      "constant": true
    },
    {
      "inputs": [
        {
          "internalType": "uint256",
          "name": "ticket_number",
          "type": "uint256"
        }
      ],
      "name": "buyTicket",
      "outputs": [],
      "stateMutability": "payable",
      "type": "function",
      "payable": true
    }
  ],
  "bytecode": "0x6080604052336000806101000a81548173ffffffffffffffffffffffffffffffffffffffff021916908373ffffffffffffffffffffffffffffffffffffffff16021790555034801561005057600080fd5b5060005b600a8110156101135780600182600a811061007257610071610119565b5b6003020160010181905550670de0b6b3a7640000600182600a811061009a57610099610119565b5b60030201600001819055506000600182600a81106100bb576100ba610119565b5b6003020160020160006101000a81548173ffffffffffffffffffffffffffffffffffffffff021916908373ffffffffffffffffffffffffffffffffffffffff160217905550808061010b90610181565b915050610054565b506101c9565b7f4e487b7100000000000000000000000000000000000000000000000000000000600052603260045260246000fd5b7f4e487b7100000000000000000000000000000000000000000000000000000000600052601160045260246000fd5b6000819050919050565b600061018c82610177565b91507fffffffffffffffffffffffffffffffffffffffffffffffffffffffffffffffff82036101be576101bd610148565b5b600182019050919050565b6105ac806101d86000396000f3fe6080604052600436106100345760003560e01c806350b447121461003957806367dd74ca146100785780638da5cb5b14610094575b600080fd5b34801561004557600080fd5b50610060600480360381019061005b9190610323565b6100bf565b60405161006f939291906103a0565b60405180910390f35b610092600480360381019061008d9190610323565b61010f565b005b3480156100a057600080fd5b506100a96102c4565b6040516100b691906103d7565b60405180910390f35b600181600a81106100cf57600080fd5b600302016000915090508060000154908060010154908060020160009054906101000a900473ffffffffffffffffffffffffffffffffffffffff16905083565b600a81108015610120575060008110155b61015f576040517f08c379a00000000000000000000000000000000000000000000000000000000081526004016101569061044f565b60405180910390fd5b600073ffffffffffffffffffffffffffffffffffffffff16600182600a811061018b5761018a61046f565b5b6003020160020160009054906101000a900473ffffffffffffffffffffffffffffffffffffffff1673ffffffffffffffffffffffffffffffffffffffff1614610209576040517f08c379a0000000000000000000000000000000000000000000000000000000008152600401610200906104ea565b60405180910390fd5b600181600a811061021d5761021c61046f565b5b6003020160000154341015610267576040517f08c379a000000000000000000000000000000000000000000000000000000000815260040161025e90610556565b60405180910390fd5b33600182600a811061027c5761027b61046f565b5b6003020160020160006101000a81548173ffffffffffffffffffffffffffffffffffffffff021916908373ffffffffffffffffffffffffffffffffffffffff16021790555050565b60008054906101000a900473ffffffffffffffffffffffffffffffffffffffff1681565b600080fd5b6000819050919050565b610300816102ed565b811461030b57600080fd5b50565b60008135905061031d816102f7565b92915050565b600060208284031215610339576103386102e8565b5b60006103478482850161030e565b91505092915050565b610359816102ed565b82525050565b600073ffffffffffffffffffffffffffffffffffffffff82169050919050565b600061038a8261035f565b9050919050565b61039a8161037f565b82525050565b60006060820190506103b56000830186610350565b6103c26020830185610350565b6103cf6040830184610391565b949350505050565b60006020820190506103ec6000830184610391565b92915050565b600082825260208201905092915050565b7f7469636b6574206973206e6f7420686572650000000000000000000000000000600082015250565b60006104396012836103f2565b915061044482610403565b602082019050919050565b600060208201905081810360008301526104688161042c565b9050919050565b7f4e487b7100000000000000000000000000000000000000000000000000000000600052603260045260246000fd5b7f61646472657373206973206e6f74203078300000000000000000000000000000600082015250565b60006104d46012836103f2565b91506104df8261049e565b602082019050919050565b60006020820190508181036000830152610503816104c7565b9050919050565b7f76616c7565206973206c657373207468616e2074686520707269636500000000600082015250565b6000610540601c836103f2565b915061054b8261050a565b602082019050919050565b6000602082019050818103600083015261056f81610533565b905091905056fea26469706673582212206eb0f8ba97258a3cc84b3f8440fd0de726c6100e42bd147040695757ac6da0f264736f6c63430008110033",
  "immutableReferences": {},
  "source": "//SPDX-License-Identifier: MIT\r\npragma solidity >= 0.4.0;\r\n\r\nuint constant Total_ticket = 10;\r\n\r\ncontract Tickets{\r\n    address public owner = msg.sender;\r\n    struct Ticket{\r\n        uint price;\r\n        uint id;\r\n        address owner;\r\n    }\r\n\r\n    Ticket[Total_ticket] public tickets;\r\n    constructor(){\r\n        for (uint i = 0; i < Total_ticket; i++) {\r\n            tickets[i].id = i;\r\n            tickets[i].price = 1 ether;\r\n            tickets[i].owner = address(0x0);\r\n        }\r\n    }\r\n\r\n    function buyTicket(uint ticket_number) external payable{\r\n        require(ticket_number < Total_ticket && ticket_number >= 0, \"ticket is not here\");\r\n        require(tickets[ticket_number].owner == address(0x0), \"address is not 0x0\");\r\n        require(msg.value >= tickets[ticket_number].price, \"value is less than the price\");\r\n        tickets[ticket_number].owner = msg.sender;\r\n    }\r\n}",
  "sourcePath": "D:\\Blockchain Development\\Blockchain Project\\ticketDapp\\contracts\\contracts\\Ticket.sol",
  "compiler": {
    "name": "solc",
    "version": "0.8.17+commit.8df45f5f.Emscripten.clang"
  },
  "schemaVersion": "3.4.10",
  "updatedAt": "2022-11-14T10:27:31.915Z",
  "networkType": "ethereum",
  "devdoc": {
    "kind": "dev",
    "methods": {},
    "version": 1
  },
  "userdoc": {
    "kind": "user",
    "methods": {},
    "version": 1
  }
}