{
  "contractName": "Tickets",
  "abi": [
    {
      "inputs": [],
      "stateMutability": "nonpayable",
      "type": "constructor"
    },
    {
      "inputs": [],
      "name": "owner",
      "outputs": [
        {
          "internalType": "address",
          "name": "",
          "type": "address"
        }
      ],
      "stateMutability": "view",
      "type": "function",
      "constant": true
    },
    {
      "inputs": [
        {
          "internalType": "uint256",
          "name": "",
          "type": "uint256"
        }
      ],
      "name": "tickets",
      "outputs": [
        {
          "internalType": "uint256",
          "name": "price",
          "type": "uint256"
        },
        {
          "internalType": "address",
          "name": "owner",
          "type": "address"
        }
      ],
      "stateMutability": "view",
      "type": "function",
      "constant": true
    },
    {
      "inputs": [
        {
          "internalType": "uint256",
          "name": "ticket_number",
          "type": "uint256"
        }
      ],
      "name": "buyTicket",
      "outputs": [],
      "stateMutability": "payable",
      "type": "function",
      "payable": true
    }
  ],
  "bytecode": "0x6080604052336000806101000a81548173ffffffffffffffffffffffffffffffffffffffff021916908373ffffffffffffffffffffffffffffffffffffffff16021790555034801561005057600080fd5b5060005b600a8110156100f357670de0b6b3a7640000600182600a811061007a576100796100f9565b5b60020201600001819055506000600182600a811061009b5761009a6100f9565b5b6002020160010160006101000a81548173ffffffffffffffffffffffffffffffffffffffff021916908373ffffffffffffffffffffffffffffffffffffffff16021790555080806100eb90610161565b915050610054565b506101a9565b7f4e487b7100000000000000000000000000000000000000000000000000000000600052603260045260246000fd5b7f4e487b7100000000000000000000000000000000000000000000000000000000600052601160045260246000fd5b6000819050919050565b600061016c82610157565b91507fffffffffffffffffffffffffffffffffffffffffffffffffffffffffffffffff820361019e5761019d610128565b5b600182019050919050565b610597806101b86000396000f3fe6080604052600436106100345760003560e01c806350b447121461003957806367dd74ca146100775780638da5cb5b14610093575b600080fd5b34801561004557600080fd5b50610060600480360381019061005b919061031c565b6100be565b60405161006e929190610399565b60405180910390f35b610091600480360381019061008c919061031c565b610108565b005b34801561009f57600080fd5b506100a86102bd565b6040516100b591906103c2565b60405180910390f35b600181600a81106100ce57600080fd5b600202016000915090508060000154908060010160009054906101000a900473ffffffffffffffffffffffffffffffffffffffff16905082565b600a81108015610119575060008110155b610158576040517f08c379a000000000000000000000000000000000000000000000000000000000815260040161014f9061043a565b60405180910390fd5b600073ffffffffffffffffffffffffffffffffffffffff16600182600a81106101845761018361045a565b5b6002020160010160009054906101000a900473ffffffffffffffffffffffffffffffffffffffff1673ffffffffffffffffffffffffffffffffffffffff1614610202576040517f08c379a00000000000000000000000000000000000000000000000000000000081526004016101f9906104d5565b60405180910390fd5b600181600a81106102165761021561045a565b5b6002020160000154341015610260576040517f08c379a000000000000000000000000000000000000000000000000000000000815260040161025790610541565b60405180910390fd5b33600182600a81106102755761027461045a565b5b6002020160010160006101000a81548173ffffffffffffffffffffffffffffffffffffffff021916908373ffffffffffffffffffffffffffffffffffffffff16021790555050565b60008054906101000a900473ffffffffffffffffffffffffffffffffffffffff1681565b600080fd5b6000819050919050565b6102f9816102e6565b811461030457600080fd5b50565b600081359050610316816102f0565b92915050565b600060208284031215610332576103316102e1565b5b600061034084828501610307565b91505092915050565b610352816102e6565b82525050565b600073ffffffffffffffffffffffffffffffffffffffff82169050919050565b600061038382610358565b9050919050565b61039381610378565b82525050565b60006040820190506103ae6000830185610349565b6103bb602083018461038a565b9392505050565b60006020820190506103d7600083018461038a565b92915050565b600082825260208201905092915050565b7f7469636b6574206973206e6f7420686572650000000000000000000000000000600082015250565b60006104246012836103dd565b915061042f826103ee565b602082019050919050565b6000602082019050818103600083015261045381610417565b9050919050565b7f4e487b7100000000000000000000000000000000000000000000000000000000600052603260045260246000fd5b7f61646472657373206973206e6f74203078300000000000000000000000000000600082015250565b60006104bf6012836103dd565b91506104ca82610489565b602082019050919050565b600060208201905081810360008301526104ee816104b2565b9050919050565b7f76616c7565206973206c657373207468616e2074686520707269636500000000600082015250565b600061052b601c836103dd565b9150610536826104f5565b602082019050919050565b6000602082019050818103600083015261055a8161051e565b905091905056fea2646970667358221220ec8bcc9f56ad6fe20497492d7cdd31b40a210c0f94461a20486287f3996cdce264736f6c63430008110033",
  "immutableReferences": {},
  "source": "//SPDX-License-Identifier: MIT\r\npragma solidity >= 0.4.0;\r\n\r\nuint constant Total_ticket = 10;\r\n\r\ncontract Tickets{\r\n    address public owner = msg.sender;\r\n    struct Ticket{\r\n        uint price;\r\n        address owner;\r\n    }\r\n\r\n    Ticket[Total_ticket] public tickets;\r\n    constructor(){\r\n        for (uint i = 0; i < Total_ticket; i++) {\r\n            tickets[i].price = 1 ether;\r\n            tickets[i].owner = address(0x0);\r\n        }\r\n    }\r\n\r\n    function buyTicket(uint ticket_number) external payable{\r\n        require(ticket_number < Total_ticket && ticket_number >= 0, \"ticket is not here\");\r\n        require(tickets[ticket_number].owner == address(0x0), \"address is not 0x0\");\r\n        require(msg.value >= tickets[ticket_number].price, \"value is less than the price\");\r\n        tickets[ticket_number].owner = msg.sender;\r\n    }\r\n}",
  "sourcePath": "D:\\Blockchain Development\\Blockchain Project\\ticketDapp\\contracts\\contracts\\Ticket.sol",
  "compiler": {
    "name": "solc",
    "version": "0.8.17+commit.8df45f5f.Emscripten.clang"
  },
  "schemaVersion": "3.4.10",
  "updatedAt": "2022-11-14T06:11:39.399Z",
  "networkType": "ethereum",
  "devdoc": {
    "kind": "dev",
    "methods": {},
    "version": 1
  },
  "userdoc": {
    "kind": "user",
    "methods": {},
    "version": 1
  }
}